{
  "_format": "hh-sol-artifact-1",
  "contractName": "ServiceReceipt",
  "sourceName": "contracts/ServiceReceipt.sol",
  "abi": [
    {
      "anonymous": false,
      "inputs": [
        {
          "indexed": true,
          "internalType": "uint256",
          "name": "receiptId",
          "type": "uint256"
        },
        {
          "indexed": true,
          "internalType": "address",
          "name": "agent",
          "type": "address"
        },
        {
          "indexed": true,
          "internalType": "address",
          "name": "requester",
          "type": "address"
        },
        {
          "indexed": false,
          "internalType": "bytes32",
          "name": "requestHash",
          "type": "bytes32"
        },
        {
          "indexed": false,
          "internalType": "bytes32",
          "name": "deliveryHash",
          "type": "bytes32"
        },
        {
          "indexed": false,
          "internalType": "string",
          "name": "metadataURI",
          "type": "string"
        }
      ],
      "name": "ReceiptSubmitted",
      "type": "event"
    },
    {
      "inputs": [
        {
          "internalType": "address",
          "name": "",
          "type": "address"
        },
        {
          "internalType": "uint256",
          "name": "",
          "type": "uint256"
        }
      ],
      "name": "agentReceipts",
      "outputs": [
        {
          "internalType": "uint256",
          "name": "",
          "type": "uint256"
        }
      ],
      "stateMutability": "view",
      "type": "function"
    },
    {
      "inputs": [
        {
          "internalType": "address",
          "name": "agent",
          "type": "address"
        }
      ],
      "name": "getAgentReceiptCount",
      "outputs": [
        {
          "internalType": "uint256",
          "name": "",
          "type": "uint256"
        }
      ],
      "stateMutability": "view",
      "type": "function"
    },
    {
      "inputs": [
        {
          "internalType": "address",
          "name": "agent",
          "type": "address"
        }
      ],
      "name": "getAgentReceiptIds",
      "outputs": [
        {
          "internalType": "uint256[]",
          "name": "",
          "type": "uint256[]"
        }
      ],
      "stateMutability": "view",
      "type": "function"
    },
    {
      "inputs": [
        {
          "internalType": "address",
          "name": "requester",
          "type": "address"
        }
      ],
      "name": "getRequesterReceiptIds",
      "outputs": [
        {
          "internalType": "uint256[]",
          "name": "",
          "type": "uint256[]"
        }
      ],
      "stateMutability": "view",
      "type": "function"
    },
    {
      "inputs": [],
      "name": "receiptCount",
      "outputs": [
        {
          "internalType": "uint256",
          "name": "",
          "type": "uint256"
        }
      ],
      "stateMutability": "view",
      "type": "function"
    },
    {
      "inputs": [
        {
          "internalType": "uint256",
          "name": "",
          "type": "uint256"
        }
      ],
      "name": "receipts",
      "outputs": [
        {
          "internalType": "address",
          "name": "agent",
          "type": "address"
        },
        {
          "internalType": "address",
          "name": "requester",
          "type": "address"
        },
        {
          "internalType": "bytes32",
          "name": "requestHash",
          "type": "bytes32"
        },
        {
          "internalType": "bytes32",
          "name": "deliveryHash",
          "type": "bytes32"
        },
        {
          "internalType": "uint256",
          "name": "timestamp",
          "type": "uint256"
        },
        {
          "internalType": "string",
          "name": "metadataURI",
          "type": "string"
        }
      ],
      "stateMutability": "view",
      "type": "function"
    },
    {
      "inputs": [
        {
          "internalType": "address",
          "name": "",
          "type": "address"
        },
        {
          "internalType": "uint256",
          "name": "",
          "type": "uint256"
        }
      ],
      "name": "requesterReceipts",
      "outputs": [
        {
          "internalType": "uint256",
          "name": "",
          "type": "uint256"
        }
      ],
      "stateMutability": "view",
      "type": "function"
    },
    {
      "inputs": [
        {
          "internalType": "address",
          "name": "requester",
          "type": "address"
        },
        {
          "internalType": "bytes32",
          "name": "requestHash",
          "type": "bytes32"
        },
        {
          "internalType": "bytes32",
          "name": "deliveryHash",
          "type": "bytes32"
        },
        {
          "internalType": "string",
          "name": "metadataURI",
          "type": "string"
        }
      ],
      "name": "submitReceipt",
      "outputs": [
        {
          "internalType": "uint256",
          "name": "receiptId",
          "type": "uint256"
        }
      ],
      "stateMutability": "nonpayable",
      "type": "function"
    }
  ],
  "bytecode": "0x608060405234801561001057600080fd5b50611067806100206000396000f3fe608060405234801561001057600080fd5b50600436106100885760003560e01c80638989a9cc1161005b5780638989a9cc14610140578063ac196c2414610170578063e6a2a6e5146101a0578063fac7236d146101d057610088565b80630f7ee1ec1461008d578063454ec0b0146100c257806361628e99146100f25780637f038f3c14610122575b600080fd5b6100a760048036038101906100a291906107f6565b610200565b6040516100b99695949392919061091c565b60405180910390f35b6100dc60048036038101906100d791906109b0565b610304565b6040516100e99190610a9b565b60405180910390f35b61010c60048036038101906101079190610abd565b61039b565b6040516101199190610afd565b60405180910390f35b61012a6103cc565b6040516101379190610afd565b60405180910390f35b61015a600480360381019061015591906109b0565b6103d2565b6040516101679190610afd565b60405180910390f35b61018a60048036038101906101859190610ba9565b61041e565b6040516101979190610afd565b60405180910390f35b6101ba60048036038101906101b591906109b0565b6106ee565b6040516101c79190610a9b565b60405180910390f35b6101ea60048036038101906101e59190610abd565b610785565b6040516101f79190610afd565b60405180910390f35b60006020528060005260406000206000915090508060000160009054906101000a900473ffffffffffffffffffffffffffffffffffffffff16908060010160009054906101000a900473ffffffffffffffffffffffffffffffffffffffff169080600201549080600301549080600401549080600501805461028190610c60565b80601f01602080910402602001604051908101604052809291908181526020018280546102ad90610c60565b80156102fa5780601f106102cf576101008083540402835291602001916102fa565b820191906000526020600020905b8154815290600101906020018083116102dd57829003601f168201915b5050505050905086565b6060600260008373ffffffffffffffffffffffffffffffffffffffff1673ffffffffffffffffffffffffffffffffffffffff16815260200190815260200160002080548060200260200160405190810160405280929190818152602001828054801561038f57602002820191906000526020600020905b81548152602001906001019080831161037b575b50505050509050919050565b600360205281600052604060002081815481106103b757600080fd5b90600052602060002001600091509150505481565b60015481565b6000600260008373ffffffffffffffffffffffffffffffffffffffff1673ffffffffffffffffffffffffffffffffffffffff168152602001908152602001600020805490509050919050565b60006001600081548092919061043390610cc0565b9190505590506040518060c001604052803373ffffffffffffffffffffffffffffffffffffffff1681526020018773ffffffffffffffffffffffffffffffffffffffff16815260200186815260200185815260200142815260200184848080601f016020809104026020016040519081016040528093929190818152602001838380828437600081840152601f19601f8201169050808301925050505050505081525060008083815260200190815260200160002060008201518160000160006101000a81548173ffffffffffffffffffffffffffffffffffffffff021916908373ffffffffffffffffffffffffffffffffffffffff16021790555060208201518160010160006101000a81548173ffffffffffffffffffffffffffffffffffffffff021916908373ffffffffffffffffffffffffffffffffffffffff16021790555060408201518160020155606082015181600301556080820151816004015560a08201518160050190816105a99190610ee3565b50905050600260003373ffffffffffffffffffffffffffffffffffffffff1673ffffffffffffffffffffffffffffffffffffffff168152602001908152602001600020819080600181540180825580915050600190039060005260206000200160009091909190915055600360008773ffffffffffffffffffffffffffffffffffffffff1673ffffffffffffffffffffffffffffffffffffffff1681526020019081526020016000208190806001815401808255809150506001900390600052602060002001600090919091909150558573ffffffffffffffffffffffffffffffffffffffff163373ffffffffffffffffffffffffffffffffffffffff16827fbc144df037039d8e211ca6af23b0765474de50873684998beb5d0cda896091ee888888886040516106dd9493929190610ff1565b60405180910390a495945050505050565b6060600360008373ffffffffffffffffffffffffffffffffffffffff1673ffffffffffffffffffffffffffffffffffffffff16815260200190815260200160002080548060200260200160405190810160405280929190818152602001828054801561077957602002820191906000526020600020905b815481526020019060010190808311610765575b50505050509050919050565b600260205281600052604060002081815481106107a157600080fd5b90600052602060002001600091509150505481565b600080fd5b600080fd5b6000819050919050565b6107d3816107c0565b81146107de57600080fd5b50565b6000813590506107f0816107ca565b92915050565b60006020828403121561080c5761080b6107b6565b5b600061081a848285016107e1565b91505092915050565b600073ffffffffffffffffffffffffffffffffffffffff82169050919050565b600061084e82610823565b9050919050565b61085e81610843565b82525050565b6000819050919050565b61087781610864565b82525050565b610886816107c0565b82525050565b600081519050919050565b600082825260208201905092915050565b60005b838110156108c65780820151818401526020810190506108ab565b60008484015250505050565b6000601f19601f8301169050919050565b60006108ee8261088c565b6108f88185610897565b93506109088185602086016108a8565b610911816108d2565b840191505092915050565b600060c0820190506109316000830189610855565b61093e6020830188610855565b61094b604083018761086e565b610958606083018661086e565b610965608083018561087d565b81810360a083015261097781846108e3565b9050979650505050505050565b61098d81610843565b811461099857600080fd5b50565b6000813590506109aa81610984565b92915050565b6000602082840312156109c6576109c56107b6565b5b60006109d48482850161099b565b91505092915050565b600081519050919050565b600082825260208201905092915050565b6000819050602082019050919050565b610a12816107c0565b82525050565b6000610a248383610a09565b60208301905092915050565b6000602082019050919050565b6000610a48826109dd565b610a5281856109e8565b9350610a5d836109f9565b8060005b83811015610a8e578151610a758882610a18565b9750610a8083610a30565b925050600181019050610a61565b5085935050505092915050565b60006020820190508181036000830152610ab58184610a3d565b905092915050565b60008060408385031215610ad457610ad36107b6565b5b6000610ae28582860161099b565b9250506020610af3858286016107e1565b9150509250929050565b6000602082019050610b12600083018461087d565b92915050565b610b2181610864565b8114610b2c57600080fd5b50565b600081359050610b3e81610b18565b92915050565b600080fd5b600080fd5b600080fd5b60008083601f840112610b6957610b68610b44565b5b8235905067ffffffffffffffff811115610b8657610b85610b49565b5b602083019150836001820283011115610ba257610ba1610b4e565b5b9250929050565b600080600080600060808688031215610bc557610bc46107b6565b5b6000610bd38882890161099b565b9550506020610be488828901610b2f565b9450506040610bf588828901610b2f565b935050606086013567ffffffffffffffff811115610c1657610c156107bb565b5b610c2288828901610b53565b92509250509295509295909350565b7f4e487b7100000000000000000000000000000000000000000000000000000000600052602260045260246000fd5b60006002820490506001821680610c7857607f821691505b602082108103610c8b57610c8a610c31565b5b50919050565b7f4e487b7100000000000000000000000000000000000000000000000000000000600052601160045260246000fd5b6000610ccb826107c0565b91507fffffffffffffffffffffffffffffffffffffffffffffffffffffffffffffffff8203610cfd57610cfc610c91565b5b600182019050919050565b7f4e487b7100000000000000000000000000000000000000000000000000000000600052604160045260246000fd5b60008190508160005260206000209050919050565b60006020601f8301049050919050565b600082821b905092915050565b600060088302610d997fffffffffffffffffffffffffffffffffffffffffffffffffffffffffffffffff82610d5c565b610da38683610d5c565b95508019841693508086168417925050509392505050565b6000819050919050565b6000610de0610ddb610dd6846107c0565b610dbb565b6107c0565b9050919050565b6000819050919050565b610dfa83610dc5565b610e0e610e0682610de7565b848454610d69565b825550505050565b600090565b610e23610e16565b610e2e818484610df1565b505050565b5b81811015610e5257610e47600082610e1b565b600181019050610e34565b5050565b601f821115610e9757610e6881610d37565b610e7184610d4c565b81016020851015610e80578190505b610e94610e8c85610d4c565b830182610e33565b50505b505050565b600082821c905092915050565b6000610eba60001984600802610e9c565b1980831691505092915050565b6000610ed38383610ea9565b9150826002028217905092915050565b610eec8261088c565b67ffffffffffffffff811115610f0557610f04610d08565b5b610f0f8254610c60565b610f1a828285610e56565b600060209050601f831160018114610f4d5760008415610f3b578287015190505b610f458582610ec7565b865550610fad565b601f198416610f5b86610d37565b60005b82811015610f8357848901518255600182019150602085019450602081019050610f5e565b86831015610fa05784890151610f9c601f891682610ea9565b8355505b6001600288020188555050505b505050505050565b82818337600083830152505050565b6000610fd08385610897565b9350610fdd838584610fb5565b610fe6836108d2565b840190509392505050565b6000606082019050611006600083018761086e565b611013602083018661086e565b8181036040830152611026818486610fc4565b90509594505050505056fea26469706673582212205ff275d5efa744a246f7ff2ecd8a641062fecda49d8421daa37ac342f0b9fd7464736f6c63430008140033",
  "linkReferences": {},
  "deployedLinkReferences": {}
}